:100000000C942A000C9464000C943C000C943C006A
:100010000C943C000C943C000C943C000C943C0070
:100020000C943C000C943C000C943C000C943C0060
:100030000C943C000C943C000C943C000C943C0050
:100040000C943C000C943C000C943C000C943C0040
:100050000C943C0011241FBECFE5D8E0DEBFCDBF1D
:1000600020E0A0E6B0E001C01D92A136B207E1F7A2
:100070000E9486010C9487050C94000060E081E4E6
:100080000E946B0161E081E40E946B0162E081E407
:100090000E946B0160E082E40E946B0161E082E4F7
:1000A0000E946B0162E082E40E946B0162E084E4E2
:1000B0000E9464010E94E002789485B7836085BF46
:1000C0008BB780648BBF08951F920F920FB60F926B
:1000D00011248F9381E0809360008F910F900FBE69
:1000E0000F901F9018951F93CF93DF93182F60E008
:1000F00081E40E94790162E082E40E94720188E852
:1001000093E10E94E20262E082E40E947901C0E091
:10011000D0E00DC061E081E40E94800161E082E4F2
:100120000E94800184EF91E00E94E2022196CA3091
:10013000D10584F361E081E40E94790162E081E409
:100140000E94720161E082E40E94790160E082E431
:100150000E94720162E081E40E94790188E893E1E3
:100160000E94E20262E081E40E947901C0E0D0E0F6
:100170000DC061E081E40E94800161E082E40E94A0
:10018000800184EF91E00E94E2022196CA30D105FD
:1001900084F360E082E40E94790161E082E40E94DD
:1001A000790162E082E40E94720160E081E40E94D1
:1001B000720161E081E40E94790162E081E40E94C1
:1001C000790188E893E10E94E20262E082E40E9401
:1001D000790160E081E40E947901113099F462E0D4
:1001E00081E40E947901C0E0D0E009C061E081E4CF
:1001F0000E94800184EF91E00E94E2022196CA30C1
:10020000D105A4F310926000DF91CF911F91089562
:1002100062E082E40E94790160E082E40E9472015F
:1002200088E893E10E94E20260E082E40E947901A2
:10023000109260000895CF93DF930E94E00262E085
:1002400082E40E94720160E081E40E94720188E809
:1002500093E10E94E20280916000813019F480E015
:100260000E94730060E081E40E947901C0E0D0E068
:100270000FC061E081E40E94800184EF91E00E9460
:10028000E20280916000813011F40E947300219697
:10029000CA30D10574F361E081E40E94790162E023
:1002A00081E40E94720188E893E10E94E202809159
:1002B0006000813011F40E94080162E081E40E9434
:1002C0007901DF91CF910895982F862F40E0692F13
:1002D0000E948B010895982F862F41E0692F0E947C
:1002E0008B010895982F862F41E0692F0E941602F6
:1002F0000895982F862F40E0692F0E9416020895D6
:10030000982F862F692F0E94A10208950E943E0017
:100310000E941B01FDCF623459F118F4613441F0A1
:100320000895633409F444C0643409F460C0089546
:1003300041110EC04AB321E030E0B90102C0660F9E
:10034000771F8A95E2F7CB01809584238ABB0895B5
:10035000413009F06AC04AB321E030E0B90102C07F
:10036000660F771F8A95E2F7CB01842B8ABB08952D
:1003700041110EC047B321E030E0B90102C0660F61
:10038000771F8A95E2F7CB018095842387BB089578
:10039000413009F04AC047B321E030E0B90102C062
:1003A000660F771F8A95E2F7CB01842B87BB0895F0
:1003B00041110EC044B321E030E0B90102C0660F24
:1003C000771F8A95E2F7CB018095842384BB08953B
:1003D000413059F544B321E030E0B90102C0660F65
:1003E000771F8A95E2F7CB01842B84BB08954111D6
:1003F0000EC041B321E030E0B90102C0660F771FA3
:100400008A95E2F7CB018095842381BB0895413022
:1004100061F441B321E030E0B90102C0660F771FFB
:100420008A95E2F7CB01842B81BB0895623459F1A0
:1004300018F4613441F00895633409F444C064341D
:1004400009F460C0089541110EC04BB321E030E0C3
:10045000B90102C0660F771F8A95E2F7CB0180953C
:1004600084238BBB0895413009F06AC04BB321E06F
:1004700030E0B90102C0660F771F8A95E2F7CB0121
:10048000842B8BBB089541110EC048B321E030E0AE
:10049000B90102C0660F771F8A95E2F7CB018095FC
:1004A000842388BB0895413009F04AC048B321E055
:1004B00030E0B90102C0660F771F8A95E2F7CB01E1
:1004C000842B88BB089541110EC045B321E030E074
:1004D000B90102C0660F771F8A95E2F7CB018095BC
:1004E000842385BB0895413059F545B321E030E0C0
:1004F000B90102C0660F771F8A95E2F7CB01842B02
:1005000085BB089541110EC042B321E030E0B9012E
:1005100002C0660F771F8A95E2F7CB01809584238E
:1005200082BB0895413061F442B321E030E0B9016B
:1005300002C0660F771F8A95E2F7CB01842B82BB3E
:1005400008956234B1F018F4613431F008956334E1
:10055000E9F0643441F108954BB321E030E0B90192
:1005600002C0660F771F8A95E2F7CB0184278BBB09
:10057000089548B321E030E0B90102C0660F771F4B
:100580008A95E2F7CB01842788BB089545B321E023
:1005900030E0B90102C0660F771F8A95E2F7CB0100
:1005A000842785BB089542B321E030E0B90102C041
:1005B000660F771F8A95E2F7CB01842782BB0895E7
:1005C00013BE08958F929F92AF92BF92CF92DF9207
:1005D000EF92FF92CF93DF93EC01BC0180E090E0BB
:1005E0000E9494046B017C012FE632E143E852E45F
:1005F0000E94EE0388239CF4A70196016FE672E146
:1006000083E892E40E946A032FE632E143E85EE366
:100610000E94F3030E946504C1E0D0E035C0C134FC
:10062000D10579F12FE632E143E852E4C701B60182
:100630000E94F3030E94D7030E9465044B015C01F2
:10064000EB012FE632E143E85EE3C701B6010E9409
:10065000F3036B017C01B40180E090E00E949404FC
:100660009B01AC01C701B6010E94F3039B01AC01E1
:1006700060E070E080E893E40E946A030E946504F1
:1006800003C060E0C1E0D0E062BF83B7846083BF95
:1006900040E050E0BA010AC008B600FEFDCF88B7BE
:1006A000816088BF4F5F5F4F6F4F7F4FCE01A0E0EB
:1006B000B0E0481759076A077B0770F313BEDF9154
:1006C000CF91FF90EF90DF90CF90BF90AF909F9031
:1006D0008F9008955058BB27AA270E9482030C943C
:1006E00035050E94270538F00E942E0520F039F4C8
:1006F0009F3F19F426F40C9424050EF4E095E7FBD3
:100700000C94F504E92F0E94460558F3BA176207C6
:1007100073078407950720F079F4A6F50C948005FB
:100720000EF4E0950B2EBA2FA02D0B01B90190010C
:100730000C01CA01A0011124FF27591B99F0593F50
:1007400050F4503E68F11A16F040A22F232F342F98
:100750004427585FF3CF469537952795A795F040E6
:100760005395C9F77EF41F16BA0B620B730B840BFB
:10077000BAF09150A1F0FF0FBB1F661F771F881FB3
:10078000C2F70EC0BA0F621F731F841F48F487950B
:1007900077956795B795F7959E3F08F0B0CF9395FD
:1007A000880F08F09927EE0F9795879508950E9476
:1007B000680590F09F3748F4911116F40C94810568
:1007C00060E070E080E89FE3089526F01B16611D4D
:1007D000711D811D0C94FB040C9416050E94D1041C
:1007E00008F481E008950E9407040C9435050E94E6
:1007F0002E0558F00E94270540F029F45F3F29F0AC
:100800000C94F50451110C9481050C9424050E945C
:10081000460568F39923B1F3552391F3951B550BC6
:10082000BB27AA2762177307840738F09F5F5F4FC3
:10083000220F331F441FAA1FA9F335D00E2E3AF002
:10084000E0E832D091505040E695001CCAF72BD01A
:10085000FE2F29D0660F771F881FBB1F261737076B
:100860004807AB07B0E809F0BB0B802DBF01FF279D
:1008700093585F4F3AF09E3F510578F00C94F50481
:100880000C9481055F3FE4F3983ED4F38695779509
:100890006795B795F7959F5FC9F7880F911D969556
:1008A000879597F90895E1E0660F771F881FBB1FB2
:1008B000621773078407BA0720F0621B730B840B5F
:1008C000BA0BEE1F88F7E09508950E944E0588F058
:1008D0009F5798F0B92F9927B751B0F0E1F0660F04
:1008E000771F881F991F1AF0BA95C9F714C0B13045
:1008F00091F00E948005B1E008950C948005672F67
:10090000782F8827B85F39F0B93FCCF38695779573
:100910006795B395D9F73EF490958095709561955C
:100920007F4F8F4F9F4F0895E89409C097FB3EF487
:1009300090958095709561957F4F8F4F9F4F99232C
:10094000A9F0F92F96E9BB279395F69587957795AA
:100950006795B795F111F8CFFAF4BB0F11F460FF6A
:100960001BC06F5F7F4F8F4F9F4F16C0882311F0C2
:1009700096E911C0772321F09EE8872F762F05C0D6
:10098000662371F096E8862F70E060E02AF09A9571
:10099000660F771F881FDAF7880F9695879597F966
:1009A0000895990F0008550FAA0BE0E8FEEF161600
:1009B0001706E807F907C0F012161306E407F50753
:1009C00098F0621B730B840B950B39F40A2661F0C7
:1009D000232B242B252B21F408950A2609F4A1406A
:1009E000A6958FEF811D811D089597F99F6780E877
:1009F00070E060E00895882371F4772321F0985027
:100A0000872B762F07C0662311F499270DC09051CC
:100A1000862B70E060E02AF09A95660F771F881F9A
:100A2000DAF7880F9695879597F908959F3F31F0EB
:100A3000915020F4879577956795B795880F911D0C
:100A40009695879597F908959FEF80EC0895002477
:100A50000A941616170618060906089500240A9423
:100A600012161306140605060895092E0394000CA9
:100A700011F4882352F0BB0F40F4BF2B11F460FF38
:100A800004C06F5F7F4F8F4F9F4F089557FD905861
:100A9000440F551F59F05F3F71F04795880F97FB42
:100AA000991F61F09F3F79F08795089512161306FC
:100AB0001406551FF2CF4695F1DF08C0161617062B
:100AC0001806991FF1CF8695710561050894089560
:100AD0000E944E05A0F0BEE7B91788F4BB279F38E7
:100AE00060F41616B11D672F782F8827985FF7CF0F
:100AF000869577956795B11D93959639C8F30895B6
:100B0000E894BB2766277727CB0197F90895F894D7
:020B1000FFCF15
:00000001FF
