S02300004F6E44656D616E64547261666669634C69676874436F6E74726F6C2E7372656363
S11300000C942A000C948E010C9447000C94470025
S11300100C9447000C9447000C9447000C94470040
S11300200C9447000C9447000C9447000C94470030
S11300300C9447000C9447000C9447000C94470020
S11300400C9447000C9447000C9447000C94470010
S11300500C94470011241FBECFE5D8E0DEBFCDBF0E
S113006010E0A0E6B0E0EEE7FBE002C005900D92E0
S1130070A236B107D9F720E0A2E6B0E001C01D9294
S1130080A336B207E1F70E94BC010C94BD050C94A1
S1130090000060E081E40E94A10161E081E40E942B
S11300A0A10162E081E40E94A10160E082E40E9477
S11300B0A10161E082E40E94A10162E082E40E9465
S11300C0A10162E084E40E949A010E9416037894DC
S11300D085B7836085BF8BB780648BBF0895CF934A
S11300E080916000813009F075C00E94160360E0C1
S11300F081E40E94A80162E082E40E94A80188E8E9
S113010093E10E94180360E081E40E94AF01109221
S1130110620080916000882309F4FEC0C0E011C031
S113012061E081E40E94B60184EF91E00E9418032B
S113013081E08093620080916000882309F4ECC020
S1130140CF5FCA3068F361E081E40E94AF0180911F
S11301506000882309F4E0C062E082E40E94AF01F9
S113016060E082E40E94A80162E081E40E94A801A8
S113017088E893E10E94180360E082E40E94AF01E2
S113018062E081E40E94AF0182E08093620080918A
S11301906000882309F4C0C0C0E011C061E081E4BC
S11301A00E94B60184EF91E00E94180381E08093DD
S11301B0620080916000882309F4AEC0CF5FCA302A
S11301C068F361E081E40E94AF0162E081E40E948F
S11301D0AF01A2C080916200823099F50E9416039B
S11301E0C0E00DC061E082E40E94B60161E081E4F8
S11301F00E94B60184EF91E00E941803CF5FCA30D9
S113020088F361E082E40E94AF0161E081E40E942E
S1130210AF0160E081E40E94A80162E082E40E94F0
S1130220A80188E893E10E94180360E081E40E9439
S1130230AF0162E082E40E94AF0181E0809360003C
S11302406BC00E94160362E082E40E94A801C0E031
S11302500DC061E082E40E94B60161E081E40E9485
S1130260B60184EF91E00E941803CF5FCA3088F38F
S113027062E082E40E94AF0161E082E40E94AF0187
S113028061E081E40E94AF0160E081E40E94AF017B
S113029060E082E40E94A80162E081E40E94A80177
S11302A088E893E10E94180360E082E40E94AF01B1
S11302B062E081E40E94AF01C0E00DC061E082E42D
S11302C00E94B60161E081E40E94B60184EF91E0EE
S11302D00E941803CF5FCA3088F361E082E40E9471
S11302E0AF0161E081E40E94AF0162E082E40E9418
S11302F0A80160E081E40E94A80188E893E10E94DB
S1130300180362E082E40E94AF0160E081E40E948D
S1130310AF0181E080936000CF9108951F920F9206
S11303200FB60F921124109260000F900FBE0F9021
S11303301F901895982F862F40E0692F0E94C101C5
S11303400895982F862F41E0692F0E94C1010895D6
S1130350982F862F41E0692F0E944C020895982F10
S1130360862F40E0692F0E944C020895982F862F13
S1130370692F0E94D70208950E9449000E946F00CD
S1130380FDCF623459F118F4613441F008956334B7
S113039009F444C0643409F460C0089541110EC0E6
S11303A04AB321E030E0B90102C0660F771F8A9595
S11303B0E2F7CB01809584238ABB0895413009F08C
S11303C06AC04AB321E030E0B90102C0660F771F6A
S11303D08A95E2F7CB01842B8ABB089541110EC0A4
S11303E047B321E030E0B90102C0660F771F8A9558
S11303F0E2F7CB018095842387BB0895413009F04F
S11304004AC047B321E030E0B90102C0660F771F4C
S11304108A95E2F7CB01842B87BB089541110EC066
S113042044B321E030E0B90102C0660F771F8A951A
S1130430E2F7CB018095842384BB0895413059F5BC
S113044044B321E030E0B90102C0660F771F8A95FA
S1130450E2F7CB01842B84BB089541110EC041B354
S113046021E030E0B90102C0660F771F8A95E2F7F8
S1130470CB018095842381BB0895413061F441B35D
S113048021E030E0B90102C0660F771F8A95E2F7D8
S1130490CB01842B81BB0895623459F118F4613483
S11304A041F00895633409F444C0643409F460C02D
S11304B0089541110EC04BB321E030E0B90102C0F0
S11304C0660F771F8A95E2F7CB01809584238BBB57
S11304D00895413009F06AC04BB321E030E0B9011E
S11304E002C0660F771F8A95E2F7CB01842B8BBB82
S11304F0089541110EC048B321E030E0B90102C0B3
S1130500660F771F8A95E2F7CB018095842388BB19
S11305100895413009F04AC048B321E030E0B90100
S113052002C0660F771F8A95E2F7CB01842B88BB44
S1130530089541110EC045B321E030E0B90102C075
S1130540660F771F8A95E2F7CB018095842385BBDC
S11305500895413059F545B321E030E0B90102C0B6
S1130560660F771F8A95E2F7CB01842B85BB08952C
S113057041110EC042B321E030E0B90102C0660F60
S1130580771F8A95E2F7CB018095842382BB089577
S1130590413061F442B321E030E0B90102C0660F9A
S11305A0771F8A95E2F7CB01842B82BB08956234CE
S11305B0B1F018F4613431F008956334E9F064342F
S11305C041F108954BB321E030E0B90102C0660F58
S11305D0771F8A95E2F7CB0184278BBB089548B334
S11305E021E030E0B90102C0660F771F8A95E2F777
S11305F0CB01842788BB089545B321E030E0B901DD
S113060002C0660F771F8A95E2F7CB01842785BB6A
S1130610089542B321E030E0B90102C0660F771FAC
S11306208A95E2F7CB01842782BB089513BE08950F
S11306308F929F92AF92BF92CF92DF92EF92FF92EE
S1130640CF93DF93EC01BC0180E090E00E94CA04E8
S11306506B017C012FE632E143E852E40E9424045A
S113066088239CF4A70196016FE672E183E892E483
S11306700E94A0032FE632E143E85EE30E942904CE
S11306800E949B04C1E0D0E035C0C134D10579F1AA
S11306902FE632E143E852E4C701B6010E9429047F
S11306A00E940D040E949B044B015C01EB012FE6A8
S11306B032E143E85EE3C701B6010E9429046B01FD
S11306C07C01B40180E090E00E94CA049B01AC016B
S11306D0C701B6010E9429049B01AC0160E070E0EF
S11306E080E893E40E94A0030E949B0403C060E09E
S11306F0C1E0D0E062BF83B7846083BF40E050E0D4
S1130700BA010AC008B600FEFDCF88B7816088BF71
S11307104F5F5F4F6F4F7F4FCE01A0E0B0E04817AF
S113072059076A077B0770F313BEDF91CF91FF90DF
S1130730EF90DF90CF90BF90AF909F908F900895EF
S11307405058BB27AA270E94B8030C946B050E943B
S11307505D0538F00E94640520F039F49F3F19F4D8
S113076026F40C945A050EF4E095E7FB0C942B0543
S1130770E92F0E947C0558F3BA17620773078407B0
S1130780950720F079F4A6F50C94B6050EF4E095DF
S11307900B2EBA2FA02D0B01B90190010C01CA0137
S11307A0A0011124FF27591B99F0593F50F4503EE2
S11307B068F11A16F040A22F232F342F4427585FD4
S11307C0F3CF469537952795A795F0405395C9F7EC
S11307D07EF41F16BA0B620B730B840BBAF09150A4
S11307E0A1F0FF0FBB1F661F771F881FC2F70EC043
S11307F0BA0F621F731F841F48F487957795679516
S1130800B795F7959E3F08F0B0CF9395880F08F001
S11308109927EE0F9795879508950E949E0590F06D
S11308209F3748F4911116F40C94B70560E070E01A
S113083080E89FE3089526F01B16611D711D811D3C
S11308400C9431050C944C050E94070508F481E0D2
S113085008950E943D040C946B050E94640558F0B1
S11308600E945D0540F029F45F3F29F00C942B05AC
S113087051110C94B7050C945A050E947C0568F339
S11308809923B1F3552391F3951B550BBB27AA2745
S113089062177307840738F09F5F5F4F220F331F7F
S11308A0441FAA1FA9F335D00E2E3AF0E0E832D047
S11308B091505040E695001CCAF72BD0FE2F29D04A
S11308C0660F771F881FBB1F261737074807AB071C
S11308D0B0E809F0BB0B802DBF01FF2793585F4F91
S11308E03AF09E3F510578F00C942B050C94B70513
S11308F05F3FE4F3983ED4F3869577956795B79573
S1130900F7959F5FC9F7880F911D9695879597F97D
S11309100895E1E0660F771F881FBB1F62177307F6
S11309208407BA0720F0621B730B840BBA0BEE1F0B
S113093088F7E09508950E94840588F09F5798F001
S1130940B92F9927B751B0F0E1F0660F771F881FD0
S1130950991F1AF0BA95C9F714C0B13091F00E94EA
S1130960B605B1E008950C94B605672F782F882753
S1130970B85F39F0B93FCCF3869577956795B39511
S1130980D9F73EF490958095709561957F4F8F4F80
S11309909F4F0895E89409C097FB3EF49095809585
S11309A0709561957F4F8F4F9F4F9923A9F0F92F31
S11309B096E9BB279395F695879577956795B795AF
S11309C0F111F8CFFAF4BB0F11F460FF1BC06F5F95
S11309D07F4F8F4F9F4F16C0882311F096E911C0A7
S11309E0772321F09EE8872F762F05C0662371F0C8
S11309F096E8862F70E060E02AF09A95660F771FDC
S1130A00881FDAF7880F9695879597F90895990FB7
S1130A100008550FAA0BE0E8FEEF16161706E807C4
S1130A20F907C0F012161306E407F50798F0621BE5
S1130A30730B840B950B39F40A2661F0232B242BBA
S1130A40252B21F408950A2609F4A140A6958FEFD9
S1130A50811D811D089597F99F6780E870E060E02B
S1130A600895882371F4772321F09850872B762FEB
S1130A7007C0662311F499270DC09051862B70E0AE
S1130A8060E02AF09A95660F771F881FDAF7880FBF
S1130A909695879597F908959F3F31F0915020F4EA
S1130AA0879577956795B795880F911D9695879546
S1130AB097F908959FEF80EC089500240A94161680
S1130AC0170618060906089500240A941216130638
S1130AD0140605060895092E0394000C11F48823C6
S1130AE052F0BB0F40F4BF2B11F460FF04C06F5FE2
S1130AF07F4F8F4F9F4F089557FD9058440F551FB8
S1130B0059F05F3F71F04795880F97FB991F61F08B
S1130B109F3F79F087950895121613061406551F02
S1130B20F2CF4695F1DF08C0161617061806991F6E
S1130B30F1CF869571056105089408950E94840596
S1130B40A0F0BEE7B91788F4BB279F3860F41616E7
S1130B50B11D672F782F8827985FF7CF86957795F3
S1130B606795B11D93959639C8F30895E894BB270A
S1110B7066277727CB0197F90895F894FFCFF5
S1050B7E010070
S9030000FC
